:100000000C942A000C94EF050C9418060C944106ED
:100010000C9447000C9447000C9476070C944D0701
:100020000C9424070C94FB060C946A060C9493061B
:100030000C9447000C9447000C9447000C94470024
:100040000C942D040C9447000C9447000C9447002A
:100050000C94470011241FBECFE5D8E0DEBFCDBF12
:1000600010E0A0E6B0E0E2E4FFE002C005900D92EF
:10007000A43BB107D9F720E0A4EBB0E001C01D928A
:10008000AE3CB207E1F70E941A020C949F070C9451
:10009000000080EF87BB8FEF88BB0895CF93DF937D
:1000A00000D000D0CDB7DEB7198281E08A8382E02C
:1000B0008B8383E08C8360E079C088B3806F88BBDA
:1000C00028B3462F50E04C5F5F4F81E090E002C0C4
:1000D000880F991F4A95E2F78095822388BB20E01C
:1000E00061C086B3E1E0F0E0EC0FFD1FE20FF11D0F
:1000F0003081432F90E002C0959587953A95E2F7BD
:1001000080FD4FC086B390E0042E02C09595879580
:100110000A94E2F780FFF6CF6130B1F028F0623048
:1001200011F1633079F147C0213041F008F445C046
:10013000223031F0233031F081E646C084E344C000
:1001400081E342C08FE340C0213039F0C0F122305A
:1001500031F0233031F081E637C085E335C082E3EA
:1001600033C080E331C0213039F058F1223031F012
:10017000233031F081E628C086E326C083E324C023
:100180008DE322C0213039F0F0F0223031F02330FD
:1001900031F081E619C08AE217C08DE215C08BE20A
:1001A00013C02F5F243008F49CCF6F5F643008F4D5
:1001B00084CF81E609C081E607C087E305C088E3F4
:1001C00003C089E301C08FE20F900F900F900F9052
:1001D000DF91CF91089541E062E080E00E94F30456
:1001E0002FE788E391E0215080409040E1F700C084
:1001F000000040E062E080E00E94F3040895CF93A5
:10020000DF93C82F40E060E080E00E94F30440E00C
:1002100061E080E00E94F3048BB38F709C2F907F8D
:10022000892B8BBB0E94EB008FEC97E00197F1F7D5
:1002300000C000008091B400882349F08BB3C82B24
:1002400090E1C99FE0011124CBBB0E94EB008FE934
:100250009FE00197F1F700C00000DF91CF91089572
:1002600081E00E94FF0008958FE39CE90197F1F778
:1002700000C000008AB381608ABB8AB382608ABBF7
:100280008AB384608ABB8BB38E7F8BBB8BB38D7F2D
:100290008BBB8BB38B7F8BBB8AB380618ABB8AB3EA
:1002A00080628ABB8AB380648ABB8AB380688ABB57
:1002B0008FE295E70197F1F700C000000E9430013E
:1002C00080E20E94FF0080E20E94FF0080E80E941E
:1002D000FF008FEC97E00197F1F700C0000080E08D
:1002E0000E94FF0080EF0E94FF008FEC97E00197D3
:1002F000F1F700C0000080E00E94FF0080E10E9452
:10030000FF008FE99FE00197F1F700C0000081E056
:100310008093B40086E00E94FF0080E80E94FF0006
:100320008FE00E94FF000895CF93C82F41E060E066
:1003300080E00E94F30440E061E080E00E94F3046A
:100340008BB38F709C2F907F892B8BBB0E94EB000F
:100350008FEC97E00197F1F700C000002BB330E17C
:10036000C39FC0011124922F9F70892B8BBB0E94C9
:10037000EB00CF910895823050F4603140F490E466
:10038000899F600D1124862F80680E94FF000895C8
:10039000EF92FF920F931F93CF93DF938C01D62F91
:1003A000F42E642F8D2F0E94BB01E12CC0E01CC0F5
:1003B0002031310524F40E949401CF5F15C0203113
:1003C000310549F4E11007C060E081E00E94BB0103
:1003D000EE24E39409C02032310534F491E0E912AF
:1003E00003C00E949401CF5FF801EC0FF11D8081E2
:1003F000882361F02F2D30E02C0F311D90E1D99F23
:10040000200D311D11242132310594F2DF91CF915D
:100410001F910F91FF90EF9008958091B7008F5F2B
:100420008093B70008951092B7001092B600109212
:10043000B500089561E082E00E94CF0461E083E0AE
:100440000E94CF0440E063E083E00E945A0441E050
:1004500063E083E00E94F3040E9434010E9449009B
:100460000E94BC0681E00E947D0563E172E081E0AC
:100470000E94680563E081E00E948F0578940E94E5
:10048000F0068DE092E00E94F40680E090E00E9489
:10049000E7068BE197EB0E94EA0640E060E08AE61F
:1004A00090E00E94C8010E944E008B32E1F38F322F
:1004B000D1F38D32C1F38D33B1F38136A1F38133A2
:1004C00031F01092B7001092B6001092B50081334F
:1004D00009F0AEC00E94300140E060E08BE790E0A0
:1004E0000E94C80110E001C01D2F0E944E00C82FBD
:1004F0008B32D9F38F32C9F38D32B9F38D33A9F32F
:10050000813699F3D1E0D10F612F81E00E94BB01C8
:100510008C2F0E949401D13049F480ED8C0F880F0C
:10052000982F990F990F890F8093B7008091B7008A
:10053000C80F10ED1C0FD230B9F60E94300140E018
:1005400060E08CE890E00E94C80100E001C00C2F40
:100550000E944E00D82F8B32D9F38F32C9F38D32DF
:10056000B9F38D33A9F3813699F3C1E0C00F602F41
:1005700081E00E94BB018D2F0E949401C13069F47B
:10058000602F81E00E94BB0180ED8D0F880F982FB6
:10059000990F990F890F8093B6008091B600D80FFC
:1005A000D053C230A1F60E94300140E060E08DE9F6
:1005B00090E00E94C801F12C01C0F02E0E944E0074
:1005C000C82F8B32D9F38F32C9F38D32B9F38D3303
:1005D000A9F3813699F301E00F0D6F2D81E00E94A0
:1005E000BB018C2F0E949401013049F480ED8C0FE7
:1005F000880F982F990F990F890F8093B5008091DC
:10060000B500C80FC0530230C1F60E94300140E06F
:1006100060E08CEA90E00E94C8011093B700D0938C
:10062000B600C093B50080E090E00E94E70680E34A
:1006300092B3926092BB92B3946092BB92B390617A
:1006400092BB92B3906492BB92B3906892BB92B308
:100650009E7F92BBA091B700EDECAE9F912D11242F
:10066000969596959695990F292F220F220F920F06
:10067000A91BB0E0A05ABF4F9C91909595BBAFE0ED
:10068000B7E21197F1F700C0000092B3916092BBFE
:1006900092B3946092BB92B3906192BB92B3906418
:1006A00092BB92B3906892BB92B39D7F92BBA09194
:1006B000B700AE9FA12D1124A695A695A695B0E0F2
:1006C000A05ABF4F9C91909595BBAFE0B7E21197B0
:1006D000F1F700C0000092B3926092BB92B39160B8
:1006E00092BB92B3906192BB92B3906492BB92B36F
:1006F000906892BB92B39B7F92BBA091B600AE9FD5
:10070000912D1124969596959695990F292F220F44
:10071000220F920FA91BB0E0A05ABF4F9C91909559
:1007200095BBAFE0B7E21197F1F700C0000092B3BC
:10073000926092BB92B3946092BB92B3916092BB71
:1007400092B3906492BB92B3906892BB92B39F7E37
:1007500092BBA091B600AE9FA12D1124A695A6959F
:10076000A695B0E0A05ABF4F9C91909595BBAFE085
:10077000B7E21197F1F700C0000092B3926092BB0C
:1007800092B3946092BB92B3906192BB92B391602A
:1007900092BB92B3906892BB92B39F7B92BBA091A5
:1007A000B500AE9F912D1124969596959695990F2B
:1007B000292F220F220F920FA91BB0E0A05ABF4F82
:1007C0009C91909595BBAFE0B7E21197F1F700C00F
:1007D000000092B3926092BB92B3946092BB92B3CA
:1007E000906192BB92B3906492BB92B3916092BBC2
:1007F00092B39F7792BB9091B5009E9FE12D1124FB
:10080000E695E695E695F0E0E05AFF4F90819095E9
:1008100095BBEFE0F7E23197F1F700C0000090914F
:10082000B7009C3339F41092B7009091B6009F5FE7
:100830009093B6009091B6009C3339F41092B600B4
:100840009091B5009F5F9093B5009091B50098315D
:1008500009F03DCE1092B5003ACE1F920F920FB61E
:100860000F9211242F933F934F935F936F937F9336
:100870008F939F93AF93BF93EF93FF93E091BA0051
:10088000F091BB00309729F08091B8009091B900A9
:100890000995FF91EF91BF91AF919F918F917F91BA
:1008A0006F915F914F913F912F910F900FBE0F90DD
:1008B0001F901895813011F130F08230D1F18330E2
:1008C00009F452C00895413059F42AB381E090E010
:1008D00002C0880F991F6A95E2F7822B8ABB0895A0
:1008E00041115CC02AB381E090E002C0880F991FDB
:1008F0006A95E2F7809582238ABB0895413059F4C6
:1009000027B381E090E002C0880F991F6A95E2F753
:10091000822B87BB0895411141C027B381E090E04D
:1009200002C0880F991F6A95E2F78095822387BBE2
:100930000895413059F424B381E090E002C0880F5B
:10094000991F6A95E2F7822B84BB0895411126C056
:1009500024B381E090E002C0880F991F6A95E2F706
:100960008095822384BB0895413059F421B381E0FE
:1009700090E002C0880F991F6A95E2F7822B81BB35
:10098000089541110BC021B381E090E002C0880FAF
:10099000991F6A95E2F78095822381BB0895813083
:1009A00069F028F0823089F08330B1F00895613029
:1009B00019F48FEF8ABB08951ABA0895613019F4BB
:1009C0008FEF87BB089517BA0895613019F48FEF40
:1009D00084BB089514BA0895613019F48FEF81BB78
:1009E000089511BA0895813011F130F08230D1F1BB
:1009F000833009F452C00895413059F42BB381E09B
:100A000090E002C0880F991F6A95E2F7822B8BBB9A
:100A1000089541115CC02BB381E090E002C0880FC3
:100A2000991F6A95E2F7809582238BBB0895413028
:100A300059F428B381E090E002C0880F991F6A95AD
:100A4000E2F7822B88BB0895411141C028B381E0B1
:100A500090E002C0880F991F6A95E2F78095822383
:100A600088BB0895413059F425B381E090E002C07D
:100A7000880F991F6A95E2F7822B85BB0895411173
:100A800026C025B381E090E002C0880F991F6A95C7
:100A9000E2F78095822385BB0895413059F422B353
:100AA00081E090E002C0880F991F6A95E2F7822BDF
:100AB00082BB089541110BC022B381E090E002C0D7
:100AC000880F991F6A95E2F78095822382BB08956B
:100AD000813049F018F0823059F008957093C100C8
:100AE0006093C00008957093BF006093BE000895A6
:100AF0007093BD006093BC000895813041F018F000
:100B0000823049F008958BB780648BBF08958BB70E
:100B100080688BBF08958BB780628BBF089581304A
:100B200049F120F0823009F449C00895613069F03C
:100B300028F0623089F06330B1F0089585B78E7F78
:100B400085BF85B78D7F85BF089585B7816085BFD7
:100B500085B78D7F85BF089585B78E7F85BF85B7A3
:100B6000826085BF089585B7816085BF85B7826043
:100B700085BF0895613069F028F0623089F06330F4
:100B8000B1F0089585B78B7F85BF85B7877F85BF17
:100B9000089585B7846085BF85B7877F85BF089531
:100BA00085B78B7F85BF85B7886085BF089585B77A
:100BB000846085BF85B7886085BF0895623019F06D
:100BC000633029F008C084B78F7B84BF089584B751
:100BD000806484BF089584B78F7B84BF08951F927B
:100BE0000F920FB60F9211242F933F934F935F9361
:100BF0006F937F938F939F93AF93BF93EF93FF93E5
:100C0000E091C000F091C100309709F00995FF9183
:100C1000EF91BF91AF919F918F917F916F915F9174
:100C20004F913F912F910F900FBE0F901F901895ED
:100C30001F920F920FB60F9211242F933F934F9351
:100C40005F936F937F938F939F93AF93BF93EF9334
:100C5000FF93E091BE00F091BF00309709F0099535
:100C6000FF91EF91BF91AF919F918F917F916F9184
:100C70005F914F913F912F910F900FBE0F901F905A
:100C800018951F920F920FB60F9211242F933F9336
:100C90004F935F936F937F938F939F93AF93BF9384
:100CA000EF93FF93E091BC00F091BD00309709F005
:100CB0000995FF91EF91BF91AF919F918F917F9196
:100CC0006F915F914F913F912F910F900FBE0F90B9
:100CD0001F9018951F920F920FB60F9211242F9309
:100CE0003F934F935F936F937F938F939F93AF93B4
:100CF000BF93EF93FF93E091C200F091C300309750
:100D000009F00995FF91EF91BF91AF919F918F915C
:100D10007F916F915F914F913F912F910F900FBEF7
:100D20000F901F9018951F920F920FB60F921124DB
:100D30002F933F934F935F936F937F938F939F93E3
:100D4000AF93BF93EF93FF93E091C400F091C50080
:100D5000309709F00995FF91EF91BF91AF919F9165
:100D60008F917F916F915F914F913F912F910F9054
:100D70000FBE0F901F9018958EB580618EBD8EB5F9
:100D800088608EBD8FB58D7F8FBD8FB58E7F8FBDF7
:100D90008FB58F778FBD8FB580648FBD8FB58F7DF9
:100DA0008FBD8FB58F7E8FBD8FB5877F8FBD8FB580
:100DB0008B7F8FBD8EB58F7D8EBD8EB584608EBDD1
:100DC0008EB58D7F8EBD8EB58E7F8EBD08959DBDF7
:100DD0008CBD08958330910510F097BD86BD0895B0
:100DE00089B7806189BF0895009721F09093CB0067
:100DF0008093CA0008951F920F920FB60F9211248C
:100E00002F933F934F935F936F937F938F939F9312
:100E1000AF93BF93EF93FF93E091CC00F091CD009F
:100E2000309709F00995FF91EF91BF91AF919F9194
:100E30008F917F916F915F914F913F912F910F9083
:100E40000FBE0F901F9018951F920F920FB60F9222
:100E500011242F933F934F935F936F937F938F93BF
:100E60009F93AF93BF93EF93FF93E091C800F091EE
:100E7000C900309709F00995FF91EF91BF91AF91AB
:100E80009F918F917F916F915F914F913F912F91A2
:100E90000F900FBE0F901F9018951F920F920FB6D4
:100EA0000F9211242F933F934F935F936F937F93F0
:100EB0008F939F93AF93BF93EF93FF93E091CA00FB
:100EC000F091CB00309709F00995FF91EF91BF9118
:100ED000AF919F918F917F916F915F914F913F91D2
:100EE0002F910F900FBE0F901F9018951F920F9289
:100EF0000FB60F9211242F933F934F935F936F93ED
:100F00007F938F939F93AF93BF93EF93FF93E09162
:100F1000C600F091C700309709F00995FF91EF9155
:100F2000BF91AF919F918F917F916F915F914F9101
:100F30003F912F910F900FBE0F901F901895F8942E
:020F4000FFCFE1
:100F4200C0F9A4B0999282F88090536574205469D4
:100F52006D6520456E746572203100456E74657250
:100F6200205365636F6E6473203A2000456E74658A
:100F720072204D696E75746573203A2000456E7457
:100F8200657220486F757273203A200054696D654E
:040F9200203A2000E1
:00000001FF
